{
  "contractName": "BetContract",
  "abi": [
    {
      "constant": true,
      "inputs": [
        {
          "internalType": "uint256",
          "name": "",
          "type": "uint256"
        }
      ],
      "name": "bets",
      "outputs": [
        {
          "internalType": "uint256",
          "name": "id",
          "type": "uint256"
        },
        {
          "internalType": "string",
          "name": "name",
          "type": "string"
        },
        {
          "internalType": "string",
          "name": "description",
          "type": "string"
        },
        {
          "internalType": "uint256",
          "name": "bet",
          "type": "uint256"
        },
        {
          "internalType": "bool",
          "name": "isActive",
          "type": "bool"
        }
      ],
      "payable": false,
      "stateMutability": "view",
      "type": "function"
    },
    {
      "constant": false,
      "inputs": [
        {
          "internalType": "string",
          "name": "_name",
          "type": "string"
        },
        {
          "internalType": "string",
          "name": "_description",
          "type": "string"
        },
        {
          "internalType": "uint256",
          "name": "_bet",
          "type": "uint256"
        }
      ],
      "name": "createBet",
      "outputs": [],
      "payable": false,
      "stateMutability": "nonpayable",
      "type": "function"
    },
    {
      "constant": false,
      "inputs": [
        {
          "internalType": "uint256",
          "name": "id",
          "type": "uint256"
        },
        {
          "internalType": "uint256",
          "name": "amount",
          "type": "uint256"
        }
      ],
      "name": "placeBet",
      "outputs": [
        {
          "internalType": "bool",
          "name": "success",
          "type": "bool"
        }
      ],
      "payable": false,
      "stateMutability": "nonpayable",
      "type": "function"
    }
  ],
  "bytecode": "0x60806040526000805534801561001457600080fd5b5061063a806100246000396000f3fe608060405234801561001057600080fd5b50600436106100415760003560e01c806322af00fa146100465780634afe62b51461017257806350d936bb146101c2575b600080fd5b6100726004803603602081101561005c57600080fd5b810190808035906020019092919050505061031e565b60405180868152602001806020018060200185815260200184151515158152602001838103835287818151815260200191508051906020019080838360005b838110156100cc5780820151818401526020810190506100b1565b50505050905090810190601f1680156100f95780820380516001836020036101000a031916815260200191505b50838103825286818151815260200191508051906020019080838360005b83811015610132578082015181840152602081019050610117565b50505050905090810190601f16801561015f5780820380516001836020036101000a031916815260200191505b5097505050505050505060405180910390f35b6101a86004803603604081101561018857600080fd5b810190808035906020019092919080359060200190929190505050610491565b604051808215151515815260200191505060405180910390f35b61031c600480360360608110156101d857600080fd5b81019080803590602001906401000000008111156101f557600080fd5b82018360208201111561020757600080fd5b8035906020019184600183028401116401000000008311171561022957600080fd5b91908080601f016020809104026020016040519081016040528093929190818152602001838380828437600081840152601f19601f8201169050808301925050505050505091929192908035906020019064010000000081111561028c57600080fd5b82018360208201111561029e57600080fd5b803590602001918460018302840111640100000000831117156102c057600080fd5b91908080601f016020809104026020016040519081016040528093929190818152602001838380828437600081840152601f19601f82011690508083019250505050505050919291929080359060200190929190505050610499565b005b6001602052806000526040600020600091509050806000015490806001018054600181600116156101000203166002900480601f0160208091040260200160405190810160405280929190818152602001828054600181600116156101000203166002900480156103d05780601f106103a5576101008083540402835291602001916103d0565b820191906000526020600020905b8154815290600101906020018083116103b357829003601f168201915b505050505090806002018054600181600116156101000203166002900480601f01602080910402602001604051908101604052809291908181526020018280546001816001161561010002031660029004801561046e5780601f106104435761010080835404028352916020019161046e565b820191906000526020600020905b81548152906001019060200180831161045157829003601f168201915b5050505050908060030154908060040160009054906101000a900460ff16905085565b600092915050565b6040518060a0016040528060005481526020018481526020018381526020018281526020016001151581525060016000805481526020019081526020016000206000820151816000015560208201518160010190805190602001906104ff929190610560565b50604082015181600201908051906020019061051c929190610560565b506060820151816003015560808201518160040160006101000a81548160ff0219169083151502179055509050506000808154809291906001019190505550505050565b828054600181600116156101000203166002900490600052602060002090601f016020900481019282601f106105a157805160ff19168380011785556105cf565b828001600101855582156105cf579182015b828111156105ce5782518255916020019190600101906105b3565b5b5090506105dc91906105e0565b5090565b61060291905b808211156105fe5760008160009055506001016105e6565b5090565b9056fea265627a7a7231582018ea4e3095c85009f8d65606f1b23f5cf7afc4257fc88c9094e316ea8eeb79b164736f6c63430005100032",
  "source": "// SPDX-License-Identifier: MIT\r\npragma solidity >=0.4.22 <0.9.0;\r\n\r\ncontract BetContract {\r\n    uint betCounter = 0;\r\n\r\n    struct Bet {\r\n        uint id;\r\n        string name;\r\n        string description;\r\n        uint bet;\r\n        bool isActive;\r\n    }\r\n\r\n    mapping (uint256 => Bet) public bets;\r\n\r\n    function createBet(string memory _name, string memory _description, uint _bet) public {\r\n        bets[betCounter] = Bet(betCounter, _name, _description, _bet, true);\r\n        betCounter++;\r\n    }\r\n\r\n    function placeBet(uint id, uint amount) public returns (bool success) { }\r\n}",
  "sourcePath": "D:/Proyectos/eth_casino/contracts/BetsContract.sol",
  "compiler": {
    "name": "solc",
    "version": "0.5.16+commit.9c3226ce.Emscripten.clang"
  },
  "schemaVersion": "3.4.1",
  "updatedAt": "2021-08-11T00:44:45.093Z",
  "networkType": "ethereum",
  "devdoc": {
    "methods": {}
  },
  "userdoc": {
    "methods": {}
  }
}