{
  "contractName": "BetContract",
  "abi": [
    {
      "inputs": [],
      "name": "betCounter",
      "outputs": [
        {
          "internalType": "uint256",
          "name": "",
          "type": "uint256"
        }
      ],
      "stateMutability": "view",
      "type": "function",
      "constant": true
    },
    {
      "inputs": [
        {
          "internalType": "uint256",
          "name": "",
          "type": "uint256"
        }
      ],
      "name": "bets",
      "outputs": [
        {
          "internalType": "uint256",
          "name": "id",
          "type": "uint256"
        },
        {
          "internalType": "string",
          "name": "name",
          "type": "string"
        },
        {
          "internalType": "string",
          "name": "description",
          "type": "string"
        },
        {
          "internalType": "uint256",
          "name": "bet",
          "type": "uint256"
        },
        {
          "internalType": "bool",
          "name": "isActive",
          "type": "bool"
        }
      ],
      "stateMutability": "view",
      "type": "function",
      "constant": true
    },
    {
      "inputs": [
        {
          "internalType": "string",
          "name": "_name",
          "type": "string"
        },
        {
          "internalType": "string",
          "name": "_description",
          "type": "string"
        },
        {
          "internalType": "uint256",
          "name": "_bet",
          "type": "uint256"
        }
      ],
      "name": "createBet",
      "outputs": [],
      "stateMutability": "nonpayable",
      "type": "function"
    },
    {
      "inputs": [
        {
          "internalType": "uint256",
          "name": "id",
          "type": "uint256"
        },
        {
          "internalType": "uint256",
          "name": "amount",
          "type": "uint256"
        }
      ],
      "name": "placeBet",
      "outputs": [
        {
          "internalType": "bool",
          "name": "success",
          "type": "bool"
        }
      ],
      "stateMutability": "nonpayable",
      "type": "function"
    }
  ],
  "bytecode": "0x60806040526000805534801561001457600080fd5b506108a0806100246000396000f3fe608060405234801561001057600080fd5b506004361061004c5760003560e01c806322af00fa146100515780634afe62b51461008557806350d936bb146100b5578063a416f5ab146100d1575b600080fd5b61006b600480360381019061006691906104d0565b6100ef565b60405161007c9594939291906105ca565b60405180910390f35b61009f600480360381019061009a91906104fd565b610242565b6040516100ac9190610594565b60405180910390f35b6100cf60048036038101906100ca9190610445565b61024a565b005b6100d9610317565b6040516100e691906105af565b60405180910390f35b6001602052806000526040600020600091509050806000015490806001018054610118906106f5565b80601f0160208091040260200160405190810160405280929190818152602001828054610144906106f5565b80156101915780601f1061016657610100808354040283529160200191610191565b820191906000526020600020905b81548152906001019060200180831161017457829003601f168201915b5050505050908060020180546101a6906106f5565b80601f01602080910402602001604051908101604052809291908181526020018280546101d2906106f5565b801561021f5780601f106101f45761010080835404028352916020019161021f565b820191906000526020600020905b81548152906001019060200180831161020257829003601f168201915b5050505050908060030154908060040160009054906101000a900460ff16905085565b600092915050565b6040518060a0016040528060005481526020018481526020018381526020018281526020016001151581525060016000805481526020019081526020016000206000820151816000015560208201518160010190805190602001906102b092919061031d565b5060408201518160020190805190602001906102cd92919061031d565b506060820151816003015560808201518160040160006101000a81548160ff02191690831515021790555090505060008081548092919061030d90610758565b9190505550505050565b60005481565b828054610329906106f5565b90600052602060002090601f01602090048101928261034b5760008555610392565b82601f1061036457805160ff1916838001178555610392565b82800160010185558215610392579182015b82811115610391578251825591602001919060010190610376565b5b50905061039f91906103a3565b5090565b5b808211156103bc5760008160009055506001016103a4565b5090565b60006103d36103ce84610650565b61062b565b9050828152602081018484840111156103ef576103ee610833565b5b6103fa8482856106b3565b509392505050565b600082601f8301126104175761041661082e565b5b81356104278482602086016103c0565b91505092915050565b60008135905061043f81610853565b92915050565b60008060006060848603121561045e5761045d61083d565b5b600084013567ffffffffffffffff81111561047c5761047b610838565b5b61048886828701610402565b935050602084013567ffffffffffffffff8111156104a9576104a8610838565b5b6104b586828701610402565b92505060406104c686828701610430565b9150509250925092565b6000602082840312156104e6576104e561083d565b5b60006104f484828501610430565b91505092915050565b600080604083850312156105145761051361083d565b5b600061052285828601610430565b925050602061053385828601610430565b9150509250929050565b6105468161069d565b82525050565b600061055782610681565b610561818561068c565b93506105718185602086016106c2565b61057a81610842565b840191505092915050565b61058e816106a9565b82525050565b60006020820190506105a9600083018461053d565b92915050565b60006020820190506105c46000830184610585565b92915050565b600060a0820190506105df6000830188610585565b81810360208301526105f1818761054c565b90508181036040830152610605818661054c565b90506106146060830185610585565b610621608083018461053d565b9695505050505050565b6000610635610646565b90506106418282610727565b919050565b6000604051905090565b600067ffffffffffffffff82111561066b5761066a6107ff565b5b61067482610842565b9050602081019050919050565b600081519050919050565b600082825260208201905092915050565b60008115159050919050565b6000819050919050565b82818337600083830152505050565b60005b838110156106e05780820151818401526020810190506106c5565b838111156106ef576000848401525b50505050565b6000600282049050600182168061070d57607f821691505b60208210811415610721576107206107d0565b5b50919050565b61073082610842565b810181811067ffffffffffffffff8211171561074f5761074e6107ff565b5b80604052505050565b6000610763826106a9565b91507fffffffffffffffffffffffffffffffffffffffffffffffffffffffffffffffff821415610796576107956107a1565b5b600182019050919050565b7f4e487b7100000000000000000000000000000000000000000000000000000000600052601160045260246000fd5b7f4e487b7100000000000000000000000000000000000000000000000000000000600052602260045260246000fd5b7f4e487b7100000000000000000000000000000000000000000000000000000000600052604160045260246000fd5b600080fd5b600080fd5b600080fd5b600080fd5b6000601f19601f8301169050919050565b61085c816106a9565b811461086757600080fd5b5056fea264697066735822122041ee01e2e7de1020b3b616d2572ed156595ba54254767715748b81ee880dfb8964736f6c63430008060033",
  "immutableReferences": {},
  "source": "// SPDX-License-Identifier: MIT\r\npragma solidity ^0.8.6;\r\n\r\ncontract BetContract {\r\n    uint256 public betCounter = 0;\r\n\r\n    struct Bet {\r\n        uint256 id;\r\n        string name;\r\n        string description;\r\n        uint bet;\r\n        bool isActive;\r\n    }\r\n\r\n    mapping (uint256 => Bet) public bets;\r\n\r\n    function createBet(string memory _name, string memory _description, uint _bet) public {\r\n        bets[betCounter] = Bet(betCounter, _name, _description, _bet, true);\r\n        betCounter++;\r\n    }\r\n\r\n    function placeBet(uint id, uint amount) public returns (bool success) { }\r\n}",
  "sourcePath": "D:/Proyectos/eth_casino/contracts/BetsContract.sol",
  "compiler": {
    "name": "solc",
    "version": "0.8.6+commit.11564f7e.Emscripten.clang"
  },
  "schemaVersion": "3.4.1",
  "updatedAt": "2021-08-11T03:18:28.667Z",
  "networkType": "ethereum",
  "devdoc": {
    "kind": "dev",
    "methods": {},
    "version": 1
  },
  "userdoc": {
    "kind": "user",
    "methods": {},
    "version": 1
  }
}